S02B0000433A2F55736572732F4B494954303030312F53696D706C696369747953747564696F2F76365F776F07
S31508000000C00A00207B7C02087F7C02087F7C0208ED
S3150800001089A602087F7C02087F7C02087F7C02088A
S315080000207F7C02087F7C02087F7C02087F7C0208AE
S315080000307F7C02087F7C0208AD6C02087F7C020880
S315080000407F7C02087F7C02087F7C02087F7C02088E
S315080000507F7C02087F7C02087F7C02087F7C02087E
S315080000607F7C02087F7C02087F7C02087F7C02086E
S315080000707F7C02087F7C02081DCD0008CDC80208D7
S315080000807F7C02087F7C02087F7C02087F7C02084E
S315080000907F7C02087F7C02087F7C02087F7C02083E
S315080000A07F7C02087F7C02087F7C02087F7C02082E
S315080000B0913700207F7C02087F7C02087F7C02083B
S315080000C07F7C02087F7C02087F7C0208FD78000896
S315080000D07F7C02087F7C02087F7C0208311F0008AB
S315080000E0111F00087F7C02087F7C02087F7C0208BB
S315080000F07F7C0208FD2D0208F9360208E17903081B
S31508000100DD790308452E0208F7790308E57903081F
S31508000110C9360208E97903085D4402083937020836
S315080001207F7C02087F7C02087F7C02087F7C0208AD
S315080001304B9D02087F7C02087F7C02087F7C0208B0
S315080001407F7C02087F7C02087F7C02087F7C02088D
S315080001507F7C02087F7C02087F7C02087F7C02087D
S315080001607F7C02087F7C02087F7C02087F7C02086D
S315080001707F7C02087F7C02087F7C02087F7C02085D
S315080001807F7C02087F7C02087F7C020885A2030820
S31508000190A11902087F7C0208CD1702080118020877
S315080001A07F7C02087F7C02087F7C02087F7C02082D
S309080001B07F7C020838
S315080001C0F0B5114A114C124E00F00105E3695F07BC
S315080001D013D40DB9334213D103EA00078F4207D16E
S315080001E00B4A1A40002A14BF6FF001000020F0BD28
S315080001F0013AEBD16FF00200F9E74FF0FF30F6E76E
S315080002006FF00100F3E700BF8096980000000350E6
S31508000210020001000B4B70B5D96911F480310DD17C
S3150800022001244FF48072084E084DF46020462C6471
S315080002301A61FFF7C5FF3464EC6070BD6FF001000A
S31508000240FBE700BF000003500010035000200350D6
S315080002504FF4803238B50E4B0E4C9A66E56941F676
S31508000260713315400122E3630B4B0021DA60022348
S31508000270606121202361FFF7A3FF10B92120FFF752
S315080002809FFF0122054BDA600DB10023E36338BDF9
S315080002900090005000000350001003500020035047
S315080002A070B5134C6061E3695B071ED40E4656F8B9
S315080002B0043B8D18A361AE420BD1042300212120F3
S315080002C02361FFF77DFF58B9BDE870402120FFF78D
S315080002D077BF08210846FFF773FF10B1042323618F
S315080002E070BD56F8043BA361E5E74FF0FF30F7E72A
S315080002F0000003502DE9F84316464FF48032184B98
S3150800030089469A6603F51C33DA69074602F480388B
S3150800031041F67132DA63012203F58053114DDA6032
S3150800032066B930460122104BDA60B8F1000F03D0E7
S315080003300022A3F50053DA63BDE8F88307F50054F5
S315080003402C40E41BB44228BF344649462246384668
S31508000350FFF7A6FF0028E5D12744A144361BDFE7AF
S315080003600090005000E0FFFF0020035010B582B057
S3150800037001A90DF1030000F0E7F8019A92F8403060
S315080003805BB2002B0FDD0949D36A496B19420AD0C3
S3150800039092F840100648074C013949B282F84010D5
S315080003A063634362836402B010BD00BF000004505B
S315080003B000100450002004502DE9F04F85B003A921
S315080003C00DF10B0000F0C0F8039C94F82950D4F8FE
S315080003D00C8004EB45039B8C94F82A60A068626B3A
S315080003E0216A08EB830306B1490803EB810C1168FF
S315080003F0494E21F07F4100EB810094F84210D778EE
S3150800040001EB410106EB0111168908615068013EAE
S3150800041020F07F4008EB800048614048009740EA9A
S315080004200610C860206B064601903D488662466203
S3150800043049696163E18C21B1013505F0010584F84C
S3150800044029501832944553D3A646364FDFF8DC9028
S315080004505EF8386B20E01AF0040F0CBF594694F882
S31508000460291002F10C021CBF04EB4101898C5D6165
S3150800047018BF08EB810121F00301C3F818E01AF050
S31508000480020FC3F81090D9611EBFD96941F0020165
S31508000490D96162455B462BD852F80C1C12F8050C3C
S315080004A021F07F41043006EB810154F820B012F8A0
S315080004B009AC32F8025C596052F8080C32F8041C90
S315080004C020F07F400BEB80000139986047EA011164
S315080004D003F11000196020F0030141F0020103F155
S315080004E0200BD960002DB6D10C3262450346D3D90C
S315080004F0009AD2070CD40C490C4A019858609960A6
S315080005001A6053F8041C43F00202D96043F8042C1D
S3150800051005B0BDE8F08F00BF5800045000003F0842
S3150800052000100450080020083C1004500A00300847
S315080005304FF0BA43196ADA6903F500530A40DA61DB
S31508000540704700BF000000005FF800F01D8C03082C
S31508000550000000000000000000000000000000008D
S31508000560013800D0FCE770472DE9F347D0F80CA016
S315080005701546504600220E462BF00BFC0446002872
S315080005806AD00022314650462BF018FC0746002850
S3150800059062D0227F037F93425ED1092B26D1C3689E
S315080005A0803359D1A0680CF0FDFF00223A4B0DF0BC
S315080005B051F841EC100B2846E36840F80C3B24F050
S315080005C005FE0022354B51EC100B0DF043F841ECBB
S315080005D0100B25F075F851EC100B0DF0D5FA1F220B
S315080005E0A860E96804202BF099FF6860237F072B31
S315080005F03ED1E36883BBFE6876BB684694ED020A83
S315080006000CF026FA009B0C33EB6003B9D0B9A0684E
S315080006100CF0C8FF0022224B0DF01CF80022214BDB
S315080006200DF018F81AA3D3E90023804689460DF081
S315080006308DFA08B11F2E13D1EE60404649460DF0DB
S31508000640A3FA064697ED020AAE6001A80CF000FA76
S3150800065010B1019B0F330BD0012002B0BDE8F08723
S3150800066042464B464046494601360CF03DFED9E720
S31508000670DAF80030214650469B699847DAF8003088
S31508000680504639469B6998470020E6E7AFF3008055
S3150800069000000000C0FFCF400000A0410000E0417C
S315080006A00000B0400000084051EC100BC1F30A539B
S315080006B02DE9F041A3F2FF350C460646132D22DC40
S315080006C0002D41DB384B0F4643FA05F801EA0803CB
S315080006D003431DD032A3D3E900230CF005FE002204
S315080006E000230DF047FA40B1002C03DA4FF48013CB
S315080006F02B411F4427EA080400262346324643ECCA
S31508000700102BBDE8F081332D06DDB5F5806F2BD0B3
S3150800071041EC100BBDE8F081A3F213434FF0FF370D
S31508000720DF403842F4D01EA3D3E900230CF0DCFDE9
S31508000730002200230DF01EFA0028DED0002C3346D6
S3150800074020DB23EA0706D8E715A3D3E900230CF034
S31508000750CBFD002200230DF00DFA0028CDD0002C89
S3150800076009DB00263446C8E702460B460CF0BCFDFA
S3150800077041EC100BCEE724F0004426430DD14FF090
S315080007800044BAE7142D06D0C5F134050122AA4063
S3150800079013449E42D5D90134D3E70026034CACE76F
S315080007A09C7500883CE4377EFFFF0F000000F0BF11
S315080007B00348044B834202D0034B03B118477047E2
S315080007C0B83A0020B83A002000000000064B074956
S315080007D0C91A891048BF0131491003D0044B0BB11F
S315080007E001481847704700BFB83A0020B83A0020B9
S315080007F00000000010B5064C237843B9FFF7D8FF70
S31508000800044B13B10448AFF300800123237010BDD5
S315080008107032002000000000802E040808B5054B41
S315080008201BB105490548AFF30080BDE80840FFF74E
S31508000830CDBF00BF00000000C80D0020802E0408B0
S31508000840A3F5803A704700BF174B002B08BF134B20
S315080008509D46FFF7F5FF00218B460F461348144ABD
S31508000860121A37F01AFD0E4B002B00D098470D4B85
S31508000870002B00D098470020002104000D000D48E9
S31508000880002802D00C48AFF3008025F0EDFE2000CA
S3150800089029002CF01DF825F055FD00BF00000800C2
S315080008A00000000000000000C00A0020C00A002066
S315080008B020340020000000000000000037B5044680
S315080008C010F00CFE002840D1214B20766361A36806
S315080008D043F48013A36029F03CFFA368A0801B03A0
S315080008E00CD4B0F5FA7F09D939F033F90121054658
S315080008F0084638F0E9FA284639F026F9204610F075
S3150800090015FE0546F0B9134813F0ACFB2DF052FD61
S315080009100FF04CFA2FF063F92DF0F4F92A4601216D
S3150800092004202DF01CFD01A88DF8045010F0B4FF2A
S315080009300321042013F05CF80A200FF007F820467C
S3150800094026F0AAF9284603B030BD0025FAE700BF0D
S3150800095005040300863A002008B5044904481CF03B
S3150800096071FCBDE808401CF09DBC00BF6CA30308E1
S3150800097054A403084FF08052014B5A60704700BFD9
S3150800098000ED00E0F8B50E460546D0B1C9B10E4BEC
S315080009900E4F1968386802F09BFC044678B906239E
S315080009A032460B49386802F05BFD044638B9012324
S315080009B02A460849386802F053FD00B12C702046D3
S315080009C0F8BD2124FBE700BFD4370020F437002008
S315080009D02C0004003C00040008B5044839F03FFA2E
S315080009E02BF026FFBDE8084000F06EB9B8C303082F
S315080009F0014839F034BA00BFB8C3030870B52A4EA7
S31508000A0092B0354605AC0FCD06F114050FC40FCDCF
S31508000A100AAC0FC495E80F0084E80F00234B24485E
S31508000A2007930AAB09934FF48073ADF82C3039F06D
S31508000A3016FA204839F013FA0421B38E0DEB01009B
S31508000A400022ADF8043027F0A7F9F38E002204211E
S31508000A5002A8ADF8083027F09FF9338F0022042149
S31508000A6003A8ADF80C3027F097F9022301220421D8
S31508000A7004A8ADF8103027F08FF90F4805A904F03F
S31508000A804FFB0E4B0E4A0020C3F8CC244FF002123F
S31508000A90C3F8C424A2F58032C3F8C8241C22C3F8BC
S31508000AA0B42412B070BD00BFE8A40308A05A3200EF
S31508000AB0BCC30308B8C3030800C0085000C00350ED
S31508000AC00200030010B50446012026F0F8F8762146
S31508000AD0054828F031F82146034828F02DF800206B
S31508000AE026F0EDF8002010BD00C0085070B5054688
S31508000AF0C0F3C7100E46144665F07F05FFF7E2FF00
S31508000B00012026F0DCF80948E9B228F015F8264451
S31508000B10B44204D1002026F0D2F8002070BD00218E
S31508000B20024828F009F804F8010BF1E700C008505C
S31508000B3038B504460D46C0F3C710FFF7C3FF0120BA
S31508000B4026F0BDF804F07F01054827F0F5FF294691
S31508000B50034827F0F1FF002026F0B1F8002038BD41
S31508000B6000C00850DFED497AB4EEE70AF1EE10FA54
S31508000B7010B52DED028B54DCDFED457AB4EEE70AAD
S31508000B80F1EE10FA52DCDFED437AB4EEE70AF1EE45
S31508000B9010FA50DCDFED407AB4EEE70AF1EE10FA0F
S31508000BA04EDCDFED3E7AB4EEE70AF1EE10FA4CDCE5
S31508000BB09FED3B8AB4EEC80AF1EE10FA4ADCDFED87
S31508000BC0397AB4EEE70AF1EE10FA48DCDFED367A48
S31508000BD0B4EEE70AF1EE10FA44DCF3EE027AB4EE6C
S31508000BE0E70AF1EE10FA42DCF2EE027AB4EEE70A10
S31508000BF0F1EE10FA40DCF1EE087AB4EEE70AF1EE0F
S31508000C0010FA4FF00B003CDD0C24B1EE098A26F0F1
S31508000C105CF9204626F06EF9B0EE480ABDEC028B68
S31508000C2010BD03209FED218A0446F0E704209FEDBE
S31508000C30208A0446EBE705209FED1E8A0446E6E770
S31508000C4006209FED1D8A0446E1E70F209FED1B8ACB
S31508000C500446DCE707209FED1A8A0446D7E70820F2
S31508000C600446D4E709209FED178A0446CFE70A20F1
S31508000C70B3EE098A0446CAE70B20B2EE098A04468F
S31508000C80C5E70D24B0EE098AC1E700BF0080BB4561
S31508000C9000803B450080BB4400803B440080BB434A
S31508000CA00000C84200009642000014420000FA45BF
S31508000CB000007A450000FA4400007A440000FA432E
S31508000CC000004843000048422DE9F0415E4C92B0CE
S31508000CD009AD94E80F0085E80F000DAA174604F140
S31508000CE0100304F1200C164618685968083303C621
S31508000CF063453246F7D11868544B08A9306018790D
S31508000D0039F0A8F8524839F0AAF8524839F0A7F845
S31508000D104FF4807308985049ADF83430814228BFA3
S31508000D2001460C9728F029F829464FF4E0650A9001
S31508000D304A4804F03FFD494827F0C7FF474827F0CF
S31508000D40EDFF464827F0D6FFB4F824800122042197
S31508000D506846ADF8008027F01FF8E78C00220121CD
S31508000D6001A8ADF8047027F017F8268D0122042192
S31508000D7002A8ADF8086027F00FF80122042103A89D
S31508000D80374CADF80C5027F007F8364B4FF448703F
S31508000D90C4F8C8344FF00213C4F8C43403F58033DA
S31508000DA0C4F8CC341C23C4F8B43408F06DF807A88A
S31508000DB0ADF81C5000F0FEFF142008F065F807A8EF
S31508000DC0ADF81C5000F0E6FF232008F05DF807A8F0
S31508000DD0ADF81C5000F0EEFFB921204827F0C3FFFC
S31508000DE007A8ADF81C5000F0D5FF002204A811464C
S31508000DF0ADF8108026F0D0FF002205A81146ADF800
S31508000E00147026F0C9FF0122002106A8ADF8186063
S31508000E1026F0C2FF0122002107A8ADF81C5026F0D3
S31508000E20BBFF0E4804F08CFC00230A48C4F8B4340F
S31508000E30C4F8C834C4F8C434C4F8CC3439F012F849
S31508000E4012B0BDE8F08100BF24A5030818C5030841
S31508000E50B8C30308BCC30308E070720000C008509A
S31508000E6000C003500200010010B50A46044619B135
S31508000E70024B00211B68984710BD00BF50A5030808
S31508000E800E4B0340B3F1607F06D1B1F5885F0CBF06
S31508000E9000206FF086007047B3F1707F0BD101F424
S31508000EA0E043B3F5005F06D111F4E06F14BF0020EC
S31508000EB06FF0860070476FF0860070470000C07FAD
S31508000EC08A42F8B506460D4600F0CD806A4B22F4F4
S31508000ED0FF7121F00101994210D0684922F0FF0301
S31508000EE08B420BD022F47F7020F00300A1F57061CD
S31508000EF0884203D001F5A0618B4227D15E4B25F4C9
S31508000F00FF7121F00101994210D05C4925F0FF03D9
S31508000F108B420BD025F47F7020F00300A1F5706199
S31508000F20884203D001F5A0618B420FD115F0FF006E
S31508000F300BD0534B40F00070984240F0968082EAFE
S31508000F400500FF288CBF00200120F8BD05F0FE43F0
S31508000F50B3F1A06F11D102F0FE43B3F1A06F72D1C5
S31508000F6082EA050333F47E136DD128046BD5C5F3E5
S31508000F700540C2F305429042E4E7B3F1407F62D1EF
S31508000F8002F0FE43B3F1407F5DD182EA050030F4FA
S31508000F907E1458D131462846FFF772FF002864D1DF
S31508000FA0384912F47C1701EA020116D0B1F1607FC4
S31508000FB0C2F3054336D1D1B241F0007101F17E4149
S31508000FC00339102901D83048445C15F47C1F2FD109
S31508000FD09C4214BF00200120B7E7B1F1607F0AD117
S31508000FE0D3B243F0007303F17E43033B102B40D882
S31508000FF02649CB5CDFE7B1F1707F17D106F4E043F1
S31508001000B3F5005F33D10123C6F302218B4006F402
S31508001010E041B1F5005FD8D10120C6F3022600FAF7
S3150800102006F4D2E7B1F1707FCFD1F0E73B46CCE7C3
S315080010301FB9C5F30541A14215D0290403D5C5F347
S31508001040054098427EE725F47F03B3F1106F0CD173
S3150800105002F0FE43B3F1106F07D10D48104040F07F
S315080010601060A842B5E701206FE700206DE73B4610
S31508001070CDE73B469FE700BF0002000600130006C7
S31508001080FF0000020000C07F54A5030854A503080A
S315080010900000FFF637B50D4D0C466B78022B12D1C2
S315080010A02B78072B0FD100230A460193014601AB83
S315080010B0281D28F047FA20B9019BA34218BF6FF0F4
S315080010C0930003B030BD6FF08800FAE7E00D00200A
S315080010D038B500F0FE43B3F1407F04460D4602D012
S315080010E06FF0860038BDFFF7CBFE0028F8D114F460
S315080010F07C1F18D0C4F30543032B137022D9224A48
S315080011002240B2F1607F31D1E4B244F0007404F1B8
S315080011107E44033C102CE3D81C4A125D9342DFD868
S31508001120142BDFD90EE0184B2340B3F1607F0FD1A3
S31508001130E3B243F0007303F17E43033B102B04D95B
S31508001140002313706FF08500CCE71149CB5CD3E719
S31508001150B3F1707FF4D101F4E043B3F5005FEFD14A
S315080011600123C1F302218B40DBB2C5E7B2F1707FE0
S31508001170B6D105F4E042B2F5005FB1D10122C5F35C
S315080011800225AA40CAE700BF0000C07F54A503088D
S3150800119054A503082DE9F843884617461C4600F06F
S315080011A0A1FB0546002844D1D8F80060B6F800909F
S315080011B009F4E043B3F5804FB36808BF27F0010789
S315080011C037EA03032DD1A4B3244B24F4FF7222F08B
S315080011D001029A4210D0224A24F0FF0393420BD010
S315080011E024F47F7121F00301A2F57062914203D0C5
S315080011F002F5A06293421FD114F0FF0304D0194AE6
S3150800120043F0007393421ED022464846F168FFF722
S3150800121057FE074668B9224648463169FFF750FE29
S31508001220D0B96FF0840500233046C8F8003026F0A0
S31508001230F3FB2846BDE8F88304F0FE43B3F1407F8C
S3150800124004D12304E0D56FF08605ECE7B3F1A06F6F
S31508001250F7D0044B9C42D6E73D46EAE70002000673
S3150800126000130006FF0000022DE9F04F9B460023FD
S3150800127089B08DF81B30159B9246DDE91289002B43
S315080012800E460B460CBF4FF400624FF4806207A966
S31508001290149FFFF77FFF044610BB079D3046298839
S315080012A00DF11B02FFF714FF0446C8B99DF81B0091
S315080012B0484531D8D5E908126B681B0A012B20D09E
S315080012C0184CA34200D053BBCDE903073346284642
S315080012D0CDE901B8CDF800A028F093FC044608B182
S315080012E0C7F800904A46214640463B6825F087FEE7
S315080012F0079826F091FB002C18BF204609B0BDE8D8
S31508001300F08FCDE9030733462846CDE901B8CDF875
S3150800131000A028F019FCE1E76FF08904E0E76FF018
S315080013208604DDE7020080002DE9F04F064600201E
S315080013308BB00F4614469946CDE906000992186007
S31508001340002A00F09880B2F1005F80F0978006AA24
S31508001350314607AB25F0F8FF024628BB069B5A6ABA
S315080013608AB1069DA8466A686B88120A012A0893FC
S3150800137058F824AF2B6A6DD042498A425FD01AB317
S315080013806FF0860210E073681B0A15D0012B04D093
S315080013903C498B420FD00992F2E7304609A90994D5
S315080013A026F01DFA024638B1DDE90601059226F057
S315080013B032F8059A3FE009940999069825F058FEEF
S315080013C002460028CDD0EFE70DF1200B224639461C
S315080013D02846CDE9018BCDF800A0059328F091FBAE
S315080013E010F1860F0246059B09D122463946284642
S315080013F0CDE9018BCDF800A025F05DFE02460698E2
S31508001400002AD1D14288089B7ABB43804FF6F872EE
S3150800141093422DD8338813B102889A42B0D1738883
S3150800142013B142889A42ABD14A46079925F0DAFFAA
S3150800143002460028B8D110460BB0BDE8F08F08AABE
S31508001440CDE90182394622462846CDF800A028F083
S3150800145058FBD3E708AACDE9018239462246284631
S31508001460CDF800A028F0FEF9C8E79A42CED087E763
S315080014706FF0850298E76FF08602DCE76FF0850269
S31508001480D9E700BF020080002DE9F0439946002302
S315080014900C46016885B005461746039300295BD1BB
S315080014A000F108089822404636F0F7FEB9F1000F19
S315080014B020463B460CBF4FF400624FF4806203A9F6
S315080014C0FFF768FE0446002848D1039C3846218861
S315080014D02A1DFFF7FDFD0646002844D16B7969F3FE
S315080014E000036B716168D4E90823090AB9F1000F92
S315080014F020D0012915D01E48814200D0A9BB21461B
S315080015004046009728F0B6FB044638BB04232B60F8
S31508001510039826F081FA002E18BF304605B0BDE8BC
S31508001520F08321464046009705F0A6FE0446A8B972
S315080015300523ECE7012909D00D48814200D0A1B95D
S3150800154021464046009728F0DDFBDDE72146404668
S31508001550009728F01EFBE9E76FF08804284625F077
S315080015605EFF2646D4E70446F8E76FF08604F5E7FB
S31508001570020080002DE9F04F00249B4601F0FE434F
S315080015808FB0B3F1806F0F46DDE918689246DDF833
S315080015906890099440F085800B464FF4807209A93B
S315080015A0FFF7F8FD054600287FD1099B1B8803F441
S315080015B0E042B2F5005F1CD113F4E06F19D03F4941
S315080015C027F480728A420AD001F500718F4206D04C
S315080015D03B498F4203D0A1F53F418A4209D10124F4
S315080015E0C3F302239C40102C0ED900266FF0830506
S315080015F034E042F20402934202D1324B9F420DD0AC
S31508001600314B9F420CD10D24A04550D321460AA840
S31508001610FFF740FD054620B100261FE00C24F3E73E
S3150800162000240998D0E908126EB306EB040C456845
S31508001630A8EB04032D0A012D27D0DFF890E07545A5
S3150800164000D07DBBCDE905390AAB0093CDE903BCD3
S315080016503B46CDE9014A28F0D2FA0546099826F014
S31508001660DBF907463DBB38BB24B1224630460AA9FA
S3150800167036F03AFED9F800301C443846C9F800401E
S315080016800FB0BDE8F08FB446D1E7CDE905390AAB0E
S315080016900093CDE903BC3B46CDE9014A28F052FA4E
S315080016A0DBE726466FF08605D8E72646D6E7002606
S315080016B06FF08905D2E72F460024DEE70010C00444
S315080016C000FF4004000180040013C00402008000EB
S315080016D0002307B51A460091024925F091FF03B089
S315080016E05DF804FB68A5030810B5114C2378580764
S315080016F044BF03F0FB032370990705D500F098F85B
S31508001700237823F00203237063781BB10023094A68
S31508001710636053600023082106486370FFF7A4FB43
S315080017202378DA0744BF23F00103237010BD00BFF6
S31508001730E00D0020E40D002038B51A4D6A782B78A4
S31508001740022A01D1072B1DD0DC070BD427F0EFFEA8
S31508001750044610B927F0F4FE04462B7843F001033B
S315080017602B70E4B9980707D400F05AF82B7804468A
S3150800177043F002032B7090B96A780AB9D90704D4E2
S315080017805A0708D50024204638BD07496A604A60CA
S3150800179002226A70F4E743F004032B70F2E7FFF7BE
S315080017A0A3FFF0E7E00D0020E40D002000F1404320
S315080017B0032B70B505460E460CD82822174C02FB9B
S315080017C00344237E022B02D1636983421ED06FF045
S315080017D08B0021E0012126F0F9F870B10F4B0022A9
S315080017E01C46197E022902D15969A9420BD0013239
S315080017F0042A03F12803F4D1E9E76FF087000BE028
S315080018006FF0960008E0282303FB0244204626F0E2
S31508001810D0F80028F4D1346070BD00BFEC0D00206C
S315080018200122024B002083F8A0207047EC0D00200F
S315080018302DE9F0410A4C002526464FF001080327FA
S315080018402046C4F81C802776013525F06FFC042D48
S3150800185004F12804F4D1002386F8A030BDE8F0810D
S31508001860EC0D0020F8B51E4D064695F8A0300F463B
S3150800187083B300242B462246197ED1B13CB90229EE
S3150800188005D1D96919B91979002918BF1C46013239
S31508001890042A03F12803EFD114B96FF08C0006E08F
S315080018A0204626F086F8204625F040FC10B1002494
S315080018B00EE01C46237E83B9012323763EB1651BC1
S315080018C0ED1003F1CC335D4305F18045356000200A
S315080018D03C60F8BD6FF08800E9E76FF09600E6E730
S315080018E0EC0D0020F7B50026294B0E6093F8A030C2
S315080018F007460D46002B48D0FFF758FF10F18C0F0E
S31508001900044627D129463046FFF7ACFF044608BBF4
S3150800191001232E68CDE90000694630467761736079
S3150800192001AA26F0FCF8044628B9DDE9001230467B
S3150800193025F0B1FB0446DDE9000126F0EEF828683B
S315080019405CB125F0F3FB14F18C0F08BF6FF0870428
S3150800195000232B60204603B0F0BD8368D90444BF3A
S3150800196043F4806383609A0444BF43F4006383604E
S31508001970037E012B04BF0223037626F01AF80446D9
S315080019800028E7D06FF09604E2E76FF08804E1E7F5
S31508001990EC0D002030B40D4D2C681C606C685C6042
S315080019A000249C605468DC6014881C8254885C821D
S315080019B094685C61D4689C61126930BCDA6119620A
S315080019C00A46014603F1240036F08EBC6CA50308CE
S315080019D02DE9F843232904460F4691469846089E62
S315080019E004D86FF098052846BDE8F88308221949F7
S315080019F036F02AFC05460028F3D1A368002BF0D15F
S31508001A00216A243F8F42C8F80010EAD3B1F5005F77
S31508001A10E7D271B9C9F80000E3687360238A338096
S31508001A20638A73806369B360A369F360E3693361AA
S31508001A30D9E7012028F05FFDC9F8000030B1D8F8D1
S31508001A40002004F1240136F04FFCE5E76FF08C0521
S31508001A50C9E700BF6CA5030807B5082026F085F975
S31508001A600222064B6846CDE9002326F0AAF808208C
S31508001A7003B05DF804EB26F083B900BF006A1810BE
S31508001A800348044A0449121A921026F0F9B800BF0E
S31508001A90C0010008600500082034002008B5154B71
S31508001AA083F30A8800F030F8FFF7EAFF124B134970
S31508001AB08B4212D30020124B12498B4218D3FEF7E1
S31508001AC0C3FE186850F82240586840F82240013290
S31508001AD098688242F5D30C33EAE70022F8E71C68D7
S31508001AE044F8220001325C68A242F8D30833E4E7DE
S31508001AF00022F8E700000020882E0408942E040827
S31508001B00942E0408942E04084FF48041144B154A69
S31508001B1070B59A60D3F88820134D42F47002C3F862
S31508001B208820124A05F5005491664FF0FF32226666
S31508001B306FF4003262660D22A2660222C3F8D02034
S31508001B40BFF34F8FBFF36F8F4FF44036002006F078
S31508001B5077F80020E66006F057F82E6170BD00BFE2
S31508001B6000ED00E0000000080080004400900050EE
S31508001B70014B1860704700BFC8370020054B186036
S31508001B80054B1B6F03F00703032B01D136F048BD45
S31508001B90704700BFD03700200080005030B5056878
S31508001BA087B0AB8804461848ADF80C3038F057F9BA
S31508001BB00022012103A826F0EFF80DF10B0103A876
S31508001BC026F018F99DF80B3083F001032B70AB79DA
S31508001BD0022B15D14FF0FF330022CDE9043304A9B7
S31508001BE00A4B009403A800F05BF9049B00940133A8
S31508001BF00CBF04220122054B05A903A800F0EAF848
S31508001C00002007B030BD00BFB8C30308AF7C020888
S31508001C10002307B52948019338F021F94FF440739A
S31508001C20012204216846ADF8003026F0B5F80122F5
S31508001C30234B0520C3F8442401A938F00BF90028E2
S31508001C4039D1204BD3F8F02042F00102C3F8F02036
S31508001C50D3F8FC2042F08072C3F8FC201A4AA3F598
S31508001C605D431A60019B194A03F5D52303F2FC4329
S31508001C70B3FBF2F3164A013B13610223C2F8F030B4
S31508001C804FF48073C2F804334FF06043114AC3F827
S31508001C90B02F114AC3F8802ED3F8002E42F4807272
S31508001CA0C3F8002EFF2283F82020D3F8002E22F452
S31508001CB08072C3F8002E03B05DF804FBB8C30308AE
S31508001CC000D0035000ED00E0FF030040F8590D0076
S31508001CD0000004E055CEACC5090001004FF0604392
S31508001CE0D3F8802E30B5D20715D501240B4D844084
S31508001CF0D5F8FC2042F08072C5F8FC20D3F8002EF7
S31508001D002243C3F8002E53F82020002AF0D003F807
S31508001D102010002030BD1120FCE700BF00ED00E0D8
S31508001D2070B5044601260C4D04B970BD94FAA4F0AA
S31508001D30B0FA80F006FA00F224EA0204C200AA58B1
S31508001D400F2805EBC001C8BF1038002AECD0496837
S31508001D50C0B29047E8E700BF900E002008B50C48CF
S31508001D6038F07DF8272005F05DFF28B1272005F01B
S31508001D7067FF272005F048FF282005F053FF28B104
S31508001D80282005F05DFF282005F03EFF002008BD4D
S31508001D90B8C3030848B10122437801789A40302332
S31508001DA05943034B00205A5070472220704700BF02
S31508001DB040D0035048B10122437801789A40302335
S31508001DC05943034B00205A5070472220704700BFE2
S31508001DD040E003502DE9F0410D4690461F46044663
S31508001DE0002836D0002934D037F0BCFE23780646C2
S31508001DF0FF2B05D042462046296803F0F9FD2860E6
S31508001E002868421C0BD12378FF2B1CD1124B607813
S31508001E10D3F8241426F0C4FF431C286013D00F49B6
S31508001E20069B41F8307001EBC0014B602378FF2B0D
S31508001E3004D001230A4A8340C2F82434304637F0D6
S31508001E408CFE002003E0304637F087FE2D20BDE8E3
S31508001E50F0812220FBE700BF00C00350900E00204F
S31508001E6000D003500F2838B5054613D837F07AFE48
S31508001E7001230024084AAB40C2F82034C2F82434AF
S31508001E80064B43F8354003EBC5035C6037F065FE47
S31508001E90204638BD2120FCE700E00350900E0020C4
S31508001EA02DE9F0410D4690461F46044650B349B306
S31508001EB037F058FE23780646FF2B05D042462046C3
S31508001EC0296803F01BFE28602A68531C14D00E49A3
S31508001ED0069B103241F8327001EBC2014B60237841
S31508001EE0FF2B04D001239340084AC2F82434304615
S31508001EF037F033FE002003E0304637F02EFE2D2063
S31508001F00BDE8F0812220FBE7900E002000D00350A8
S31508001F1008B503F013FD054B00F0553020F0A0403E
S31508001F20C3F82004BDE80840FFF7FABE00E00350F6
S31508001F3008B503F003FD054B00F0AA3020F0204059
S31508001F40C3F82004BDE80840FFF7EABE00E00350E6
S31508001F500123017A0269204803FA01F182422AD054
S31508001F6000F58040824221D01C4B9A4225D003F5C9
S31508001F7080439A4223D003F580439A4221D003F541
S31508001F8080439A421FD003F580439A421DD003F539
S31508001F9080439A421BD003F580439A4219D003F531
S31508001FA080439A4214BF4FF0FF3309230C4AB733D4
S31508001FB05B01D15070470023F8E70223F6E70323B5
S31508001FC0F4E70423F2E70523F0E70623EEE7072301
S31508001FD0ECE70823EAE700BF00800450000005503C
S31508001FE000C003500123017A0269204803FA01F16F
S31508001FF082422BD000F58040824221D01C4B9A4267
S3150800200026D003F580439A4224D003F580439A42AA
S3150800201022D003F580439A4220D003F580439A42A2
S315080020201ED003F580439A421CD003F580439A429A
S315080020301AD003F580439A4214BF4FF0FF330923A1
S315080020400C4A03F237135B01D15070470023F7E7B8
S315080020500223F5E70323F3E70423F1E70523EFE774
S315080020600623EDE70723EBE70823E9E7008004509A
S315080020700000055000C0035030B5914A8BB002608D
S31508002080904A03694260904A0446934272D052D8F5
S31508002090A2F50042934263D002F58042934264D08F
S315080020A0A2F50042934256D00025284637F0D7FEBF
S315080020B00D22002102A836F0F0F802230122206939
S315080020C08DF80930814B039300F580531A63804BD2
S315080020D0984260D003F5804398425CD003F580436C
S315080020E098425BD003F58043984257D003F5804366
S315080020F0984253D003F5804398424FD003F5804366
S3150800210098424BD003F58043984247D003F5804365
S3150800211098423ED003F58043C31A18BF0123013BFA
S31508002120A269012A01D99A423BD9284637F09AFE74
S3150800213001200BB030BD674A934220D002F5804299
S31508002140934221D0A2F500429342ADD1624B634A35
S31508002150634D1A60A9E7604B624A634D1A60A4E7AB
S315080021605D4B624A624D1A609FE75B4B614A624D5E
S315080021701A609AE7584B614A614D1A6095E7564BC3
S31508002180604A614D1A6090E7534B604A604D1A6089
S315080021908BE70023C3E74FF0FF33C1E74FF6FF7322
S315080021A0BEE7A37B217A003B18BF012302AA8DF85C
S315080021B0123026F02EFD574837F051FE637AA27B7F
S315080021C08DF80030003AA37A18BF01220421684628
S315080021D08DF8013025F0E0FD22693D4B9A425DD02D
S315080021E003F580439A425BD003F580439A4259D05F
S315080021F003F580439A4257D003F580439A4255D057
S3150800220003F580439A4253D003F580439A4251D04E
S3150800221003F580439A424FD003F580439A424DD046
S315080022203D483E49A3F52E33A3F59E73824208BF67
S315080022300B46A07A627A217A42EA004243F82120C4
S31508002240636953B1244B01A91B68187937F002FE5C
S315080022506269019BB3FBF2F3013BA2692569013A66
S31508002260B3FBF2F35343934238BF134600212A6B5C
S315080022700DF119000F22EB6136F00FF801232846FD
S3150800228006A98DF8183026F083FC2046A18925F08A
S31508002290D1FD2046FFF7A6FE00204AE7204BC8E7F7
S315080022A0204BC6E7204BC4E7204BC2E7204BC0E7CC
S315080022B0204BBEE7204BBCE7204BBAE7204BB8E7DC
S315080022C0357E02082F7E02080040055000010300F3
S315080022D00080045000C00550900F002030C4030849
S315080022E090C30308E0C40308A0C30308B4C40308E2
S315080022F09CC3030888C4030898C303085CC403087E
S3150800230094C3030804C403088CC30308D8C303088A
S3150800231088C30308B8C3030800C0065004C803509E
S31508002320E4C6035004C7035024C7035044C70350E8
S3150800233064C7035084C70350A4C70350C4C70350D7
S31508002340E4C7035013B504460A4837F088FDA27857
S315080023500421B2FA82F2237852098DF804306378A0
S315080023600DEB01008DF8053025F016FD002002B0B2
S3150800237010BD00BFB8C303082DE9F04F1446064642
S315080023800F4689B00393C36B01225B6904A9606891
S315080023909847F36B01225B6905A93846984704A854
S315080023A026F05FFA054650B10023A37563754FF012
S315080023B0FF33A3600025284609B0BDE8F08F05A8BD
S315080023C026F05CFA0123A375237E04EBC303DF61C1
S315080023D01D846368BB420ED1206005A826F06FFAFB
S315080023E04FF0FF332075A360237D043B022B26D8CC
S315080023F00023A375DEE723681A1A53425341A375CF
S3150800240005A826F05CFA237D834218BFA57505A8A2
S3150800241026F038FA804604A826F034FA804518BF14
S31508002420002305A818BFA37526F033FA804604A82A
S3150800243026F02FFA80451CBF0023A375D4E705A80C
S3150800244026F020FA80B1F36B022238465B6906A9AA
S31508002450984706A826F024FA0346207D032839D88B
S31508002460DFE800F03838040905A8F3E7CC22237E14
S3150800247004EBC3031A8401F0ADFA129B187005A881
S3150800248094F8188026F0F2F904EBC80888F82200B8
S31508002490237E05A804EBC303B3F820A093F8228093
S315080024A026F0F0F9814605A826F0F3F98346B9F136
S315080024B0000F14D0F36B022238465B6906A99847C9
S315080024C006A826F0B3F9607568B90023A3754FF01E
S315080024D000093CE0227E04EBC2021384CBE705A880
S315080024E026F08FF9EFE794F81690B9F1000FEED0C1
S315080024F0BAF1000F0DD1B8F1000F1DD00123E37515
S31508002500637E002B3FD1B8F1010F30D184F81980D2
S3150800251014E0736C07EB0B015A4287EA010010427C
S315080025201CBF0022A2755A1E0A409B1A9A45CCD88F
S31508002530A37D002BDFD1CAE7E37D43B94FF000093D
S3150800254053465A463946304625F0D2FEA060A37D4A
S3150800255013B12269524422611F49227E09789142A9
S315080025601AD901322276039ACAB91D4623E796F884
S3150800257034307BB9F36A0133E2D1B8F1030FDFD106
S315080025800123A376DAE7B8F1010FE0D0B8F1030F1B
S31508002590D4D1F5E79946D3E70023A3750BE7002BBB
S315080025A03FF409AFE57D002DDFD0B9F1000F11D159
S315080025B0B8F1030F3FF4FFAEA1684B1C3FF4FBAE26
S315080025C0129B2246009330460123FFF7D5FE0546A7
S315080025D0A075F0E64D46EEE694A503082DE9F04F02
S315080025E00E46984600238BB004464FF0FF3110463E
S315080025F017468DF8133001F0D7F9B6F5801F20D2AB
S31508002600314605AA04F1080026F079F8451C01466A
S3150800261003D1237CBBB92D2010E0384601F0C4F95C
S315080026200122394620460DF1130325F0B3FE002892
S31508002630EFD09DF8133088F8003000200BB0BDE8C5
S31508002640F08FB01CE5D1E56A691C36D12046616A6F
S3150800265025F094FD0546B31C18BF0123DFF8CC907E
S315080026600193636A626C0293236805A902FB053A23
S31508002670E36B05225B695046984705A826F08BF957
S3150800268026F0AEF9504626F0B6F94FF0000B824612
S3150800269001464B1C05D0636C81EA0A025B42134271
S315080026A011D02946204625F069FD029BAB422CD065
S315080026B0BBF1000F2CD10546D3E72368ED1A636CEE
S315080026C0B5FBF3F5C7E7484601F06EF90DF11303BC
S315080026D049462046019A25F05DFE034690B1B21C94
S315080026E003D0D9F80020B2420CD19DF813200393E9
S315080026F00D4B88F8002049461A68384635F0F4FD2F
S31508002700039B9B46D9F80810C3E7BBF1000F82D09C
S31508002710B6F5801F91D2314698F800307A6804F1F0
S31508002720080001F06FF888E790A50308081600204E
S315080027302DE9F3410446174698460E46184D816A18
S31508002740E36A8B4201D04B1C02D102B0BDE8F0818E
S31508002750284601F029F90122294620460DF10703EA
S3150800276025F018FE38B14346294620469DF807202D
S31508002770B8470028E9D0A9684A1C04D169682046E8
S3150800278025F089FD0146012EDAD16B6881EA03023C
S31508002790636C5B421A4218BF4FF0FF31D0E700BFA7
S315080027A0DC1500202DE9F0474FF0FF334FF6FF7296
S315080027B00025044600F108078AB0C0E90923C36268
S315080027C0056205633846884625F06AFF204625F0E7
S315080027D055FC60BB2046414625F020FD204625F0E5
S315080027E04DFC60BB5E200AB0BDE8F0872368E26B4B
S315080027F0606C566900FB0530052205A9B04705A897
S3150800280026F0C9F8012806460CD12946204625F0A7
S31508002810D6FC012E024600D101322946204625F073
S315080028204CFC03E026F0E1F80028EED10135E36917
S315080028309D42DBD3204625F021FC0028CAD020463D
S3150800284025F04CFC4FF6FF72636A934200F0A680AF
S31508002850E26B666C2068694606FB0300556905222B
S31508002860A847684626F06EF8626A2368606C4C4D85
S3150800287000FB023026F0BFF84FF0FF33A062E36298
S315080028802A466FF00101204605ABFFF7A7FE002890
S3150800289046D1AD6829462046E56225F0CBFB206384
S315080028A020B92046E16A25F0F6FCE0622946204672
S315080028B025F0F1FC0546A36A9D4233D1204625F052
S315080028C077FB00268046B146E36999453CD3B04577
S315080028D059D92046616A25F051FC0027054604F1BE
S315080028E0400AB74212D3626C2368694602FB05396F
S315080028F0E36B05225B6948469847684626F022F846
S31508002900534602464946E06B26F077F829462046A4
S3150800291025F034FC0137B8450546E2D1642062E764
S31508002920A56AB7E72946204625F084FB236B294686
S31508002930034406462363204625F0ADFC0546002ED3
S31508002940B9D1C4E90B06B6E7636C2568052203FB13
S315080029500955E36B05A95B692846984705A826F03B
S315080029601AF826F03DF858B1284626F044F80146EC
S31508002970204625F05FFB636C143B984208BF01367E
S3150800298009F10109A0E7384625F08AFE002320460A
S315080029901946044AFFF7CCFE002024E7672022E701
S315080029A034160020838302082DE9F041036B904614
S315080029B0826B90B09A4288BF8363426C436A076809
S315080029C00E4602FB0377C36B01A905225B69044621
S315080029D03846984701A825F0DEFF012801463070E1
S315080029E057D0656CE26B2368606AD2F814C005FBA1
S315080029F00030052206A9E04706A825F0CCFF0128E5
S31508002A004FF0000523D0D4E90A3201219342CDE9DB
S31508002A100B458DF834800E958DF83C102AD1194651
S31508002A20204625F038FC236B626C14339B1AE0624F
S31508002A3023630C9B53B99DF83C303BB1626A616CC9
S31508002A402368E06B01FB023125F05DFF0C9DE36B0B
S31508002A5005225B6901A93846984701A825F09BFF1E
S31508002A6030702846236BA26B9A4288BFA36310B0C6
S31508002A70BDE8F081237C33B91C490BAA04F1080090
S31508002A8000F00EFFD5E72046194A0BABFFF750FEBC
S31508002A90CFE7237C23BB2246164904F1080000F041
S31508002AA0FFFE616A204625F08AFB616A421C2046C1
S31508002AB025F003FB054620B9236B626C1344143BCF
S31508002AC023632046A16A25F0E6FB2368A062C01AA4
S31508002AD0636CB0FBF3F06062204625F01FFCB6E796
S31508002AE000232046044AFFF723FEDAE71D320008D2
S31508002AF0993100081D840208B983020873B50D468A
S31508002B00D11E4A421C461B7E4A419A4226D1296852
S31508002B102368994222D3636899421FD8114E0DF152
S31508002B2007033246FFF75AFDC0B972686B689A42C6
S31508002B3014D19DF80730DA1E53425341227E934240
S31508002B400CD1636901336361D4E90323934205D247
S31508002B502968A26842F8231001332361012002B0D4
S31508002B6070BD00BF341600202DE9F04F9A468BB091
S31508002B709DF85030DFF850B10293DBF810308046EC
S31508002B8053450D461646C0F09880D146DBF804300A
S31508002B900193B9F1000F00F08C80D8F83C3001227F
S31508002BA05B6907A90198984707A825F067FEDBF82F
S31508002BB00030984240F0848007A825F06AFE042871
S31508002BC0074614D107A825F06BFE019B029A044616
S31508002BD03B44002A3ED1864212D91446361A40464C
S31508002BE0019925F058FBA9EB04090190D1E7D8F81B
S31508002BF03C3002225B69019808A9984708A8E2E7D1
S31508002C00841B544528BF5446032C03EB0607AAEB3E
S31508002C10040A1DD9D8F83C30294638465B69A2080B
S31508002C20984724F0030304F003061F441D44002EAE
S31508002C30D5D0D8F83C3001225B6908A938469847B0
S31508002C403246284608A9354435F04EFB0026C6E725
S31508002C502646ECE7074600F00302039203442A18C7
S31508002C6004920593049BDD1B059BD81B039B9F427F
S31508002C700FD1002FB3D0D8F83C30012208A95B69E0
S31508002C8098473A46284608A935F0DEFA78B93D4409
S31508002C90A5E7D8F83C30012208A95B6998470422C1
S31508002CA0284608A935F0D0FA08B9043FDAE74FF004
S31508002CB0360948460BB0BDE8F08F4FF06309F8E7D0
S31508002CC04FF06F09F5E700BF601600202DE9F041C7
S31508002CD00F4616469846044688B060B390F83450B6
S31508002CE0FDB1012125F0BFF900210E9BCDE90511A3
S31508002CF0CDE902379DF83C30CDF804808DF81C30BC
S31508002D00237C04968BB90D4901AA04F1080000F04A
S31508002D10C7FDDDE90553E06B002E08BF1D4625F00B
S31508002D208BFB284608B0BDE8F0812046044A01AB73
S31508002D30FFF7FEFCEDE70546F3E700BFE783020869
S31508002D40FD2A00082DE9F04F99B0CDE90B230E4670
S31508002D500A69416CD31D1439B3FBF1F3013302EB55
S31508002D60C302036B04469342C0F00F820023DFF8C8
S31508002D7020940993E36A48461946079300F014FE1F
S31508002D80D6E9033705930C9B022B1CD1CC2F40F0B8
S31508002D9074810B9B8BB13146204625F0ABFB656CE5
S31508002DA014900B9B63B1E36B01225B69706816A9EB
S31508002DB0984716A825F066FD0CE0059B1B6814933A
S31508002DC008230E930DE0782F656CEAD80B9B002B31
S31508002DD0E9D1F07D00280CBF04230823782F0E9331
S31508002DE028D90123002508930823039333680899F3
S31508002DF00C98C9F80030C9F8107025F064FD002356
S31508002E000F930D9306930A93039BDDF81CA09B086A
S31508002E1089F814001193616C03984A1E0AEA0202A3
S31508002E208B1AEFB10544AB421CD8236B5B1A1344CB
S31508002E30236386E0079A6B1E1340EB1A3A1D9342EA
S31508002E4007D257B1082BCCD800230425089303953D
S31508002E50CCE7002504230895C7E704250897F6E775
S31508002E608342E2D3039AB8469B1A9F4228BF9846E4
S31508002E7052449F42049278D90123D9F8102089F840
S31508002E801730974276D1C9F804A0069399F81730F7
S31508002E90002B71D099F818200699D31C09EBC303A7
S31508002EA00132C3F804A0A3F80880997289F818209B
S31508002EB0B8F1000F14D00C9B022B60D10F9B7BB985
S31508002EC00D9B4344032B0BD9E36B01229B690498A2
S31508002ED014A998470546002840F0D58001230F938A
S31508002EE0069B16A80193089B009399F8142043465D
S31508002EF0316800F00FFDE36B50469B69119A16A9DD
S31508002F009847051E099B18BF5346039A09935146CD
S31508002F104346204625F0ECF9236B039AC9F80800C6
S31508002F209B1A08F1030222F003029B1A2363002D61
S31508002F3040F0A9800D9BDDF810A04344A7EB0807D5
S31508002F400D935146204625F0A6F900258246002F06
S31508002F507FF461AF8E4A3168936804F10800E36232
S31508002F6052680C9B00F04EFC89E0069B002B18BFAC
S31508002F7003238AE7022388E7C9F804A098E70B9B8E
S31508002F80002B30D1059BB8F1030F03EB080B27D9AB
S31508002F90DDE90401E36B4FEA98029B699847054609
S31508002FA0002864D118F003025ED0059B28F00305BB
S31508002FB02B440593049B1D444FF0FF33059915A830
S31508002FC0159335F091F9E36B284601229B6915A9FB
S31508002FD098470546CDF814B0002D81D0049B94E798
S31508002FE04246049DE8E706F12003DDF810B0109389
S31508002FF0F37D70689BB10023357E0A9AD9B2A9423F
S3150800300011D2109903F1010C31F83310914225D9E8
S315080030100E9906EBC303D8690A44104403E00E9BD5
S315080030200A9A13441844E36B01225B6915A9984769
S31508003030159B012213930A9B584604330A93E36BA4
S3150800304013A99B699847049B05464344A3EB0B03C6
S31508003050042B06D970B90BF1040BC9E76346521A5B
S31508003060CCE7CDF810B0B7E7CDF814B038E7CDF80F
S3150800307014B0B3E7CDF810B0B0E770252F46384640
S3150800308019B0BDE8F08F3D2DF8D104F1080303937C
S315080030902368079A606CD71AB7FBF0F700FB07306E
S315080030A025F0A9FCE16A8246204625F0F4F8A16AD3
S315080030B0D4F830E08142626C59D0D9F8083002F170
S315080030C0FF3CAEEB020103EA0C030B4423630999A8
S315080030D02368E062CB1AB3FBF2F847453BD1079B5E
S315080030E0B3EB0A0711D0E36BBA0851469B699847B8
S315080030F08346E36A079A3B44E362236B03989B1A69
S315080031005344236325F0CCFA5F462368616CE06B71
S3150800311001FB083125F0E4FB204624F0AFFF2046EA
S3150800312024F0DCFF626A2368606C00FB023025F03D
S3150800313062FCA062204625F0F1F820636FB132697F
S31508003140616CD31D1439B3FBF1F3013302EBC302EF
S3150800315090429DD292E70027D7E704F1080025F0B0
S315080031609FFA3B46394620460A4AFFF7E1FA326992
S31508003170616CD31D1439B3FBF1F3013302EBC302BF
S31508003180236B9342BFF4F6AD78E71C2777E700BFB9
S315080031900816002083830208032A2DE9F341064610
S315080031A00D4617461C4606D1237A012B23D001204B
S315080031B002B0BDE8F081DFF86080096842460DF18B
S315080031C00703FFF70BFA60600028EDD19DF807307A
S315080031D0032BE9D0D8F804206B689A42E4D1237A05
S315080031E02969012BD4F80CC007D172690CEB0103CD
S315080031F0934202D92074207CDAE708316144E16001
S315080032003B46012229463046FFF79CFD60600028B0
S31508003210CAD00020CCE700BF341600202DE9F341C0
S31508003220032A1746089C06D1237A012B25D00120AC
S3150800323002B0BDE8F0812668DFF890803046424645
S315080032400DF10703FFF7CAF960600028ECD125687D
S31508003250D8F80400A96A6A6C4840534210EA030C7D
S31508003260E2D1237A012B0AD1E068D8F8103003445A
S315080032707069834203D984F810C0207CD8E728688F
S31508003280EB6A1B1A081AB3FBF2F3B0FBF2F083429F
S315080032900BD1706CF36A421E1340326B121A134438
S315080032A02846336324F0F7FFE862D8F81020E3686D
S315080032B008321344E36001223B4604492068FFF7BD
S315080032C041FD60600028AFD00020B1E73416002029
S315080032D02DE9F0410025604B0E46D3F800800446E0
S315080032E01D6018B921252846BDE8F08190F834708C
S315080032F007B30A6803689A4240F0A4804A6843689C
S315080033009A4240F09F808A6883689A4240F09A8081
S31508003310CA68C3689A4240F095800A6943699A4226
S3150800332040F090808A69C36B9A4240F08B804B6963
S315080033308361D8E768223946856B34F0AEFFD6E953
S315080033400212336804F1080023607368A56363609A
S31508003350336963617369A36125F0B4F9B36904F14C
S315080033604000E3639B68984720B9676C17B16368A8
S31508003370B3FBF7F794F84330E761002BB2D000238C
S31508003380656C2366002D65D0002F63D02368B3FBD8
S31508003390F5F205FB1233002B56D16668B6FBF5F33A
S315080033A005FB1363002B4FD1204624F033FEA36997
S315080033B0043303449E4249D340F634726369CC3BD6
S315080033C0934245D8B5F5805F44D30321204624F0BF
S315080033D04AFED4E90001E36B1B6898470546E36B90
S315080033E00220DB689847D5B941462046FFF7DAF947
S315080033F06428054604D141462046FFF7D3F9054619
S315080034006DB9636C226A143B204602FB03F624F06E
S3150800341001FEA369043303449E4238BF5A25002D92
S315080034200CBF0123002384F8343007D1D4E9000106
S315080034300A4A13680133136025F0DEF9E06B24F0BD
S31508003440FBFF50E75D254EE759254CE75A254AE725
S315080034505F2548E75B2546E7980F0020940F002074
S315080034602DE9FF410C4616461F46054688B390F8D7
S31508003470343083B3B1F5801F2FD2DFF86480012181
S3150800348024F0F1FD4246214628460DF10F03FFF7C9
S31508003490A5F80246C8B99DF80F30012B10D1D8F807
S315080034A01030BB4213D1009031462846FFF75CFB2B
S315080034B00446E86B24F0C0FF204604B0BDE8F0815E
S315080034C0022B0CBF60242D24F3E72D24F1E7632497
S315080034D0EFE72124F0E71124EEE72924ECE700BF03
S315080034E0601600202DE9F04385B00E4617461C46A7
S315080034F00546DDF83080A0B390F834309BB3B1F5BB
S31508003500801F32D2DFF86890012124F0ACFD4A46CC
S31508003510314628460DF10F03FFF760F8E8B99DF824
S315080035200F30012B14D1D9F8102004EB08039A4266
S3150800353015D322460090434639462846FFF714FB22
S315080035400446E86B24F078FF204605B0BDE8F08312
S31508003550022B0CBF60242D24F3E72D24F1E7632406
S31508003560EFE72124F0E71124EEE72924ECE700BF72
S31508003570601600202DE9F3411E4600230C46174627
S315080035800546336050B390F834304BB3B1F5801F1D
S3150800359028D2DFF85480012124F065FD21464246F1
S315080035A028460DF10703FFF719F80446A0B99DF858
S315080035B00730032B10D0022B03BF01233B600423E3
S315080035C0D8F8103018BF38603360E86B24F034FF41
S315080035D0204602B0BDE8F0812D24F6E72124F7E75E
S315080035E01124F5E72924F3E76016002073B504468D
S315080035F0416924F0F4FC626E236B024493422CBFAB
S3150800360000220122834294BF00231B1A207C84F8DF
S315080036105020636584F85800A8B100230B4E1A465B
S3150800362019462046009625F029F8002305461A462D
S3150800363019462046009625F02AF8E3682844984259
S3150800364094BF0020C01AE06502B070BDFFFF0F00EE
S315080036502DE9F3471E4643690446B3428846174692
S315080036609DF828904FD300258DF8075020466169AC
S3150800367024F0B5FCD4F830A082450AD2236AB5EB0B
S31508003680430F06D2002220460DF10701FFF78CF9F9
S31508003690B8B39DF80730012B05D1002220460DF15D
S315080036A00701FFF781F9B9F1030F06D03146204625
S315080036B024F095FC256B854227D3154D4FF0FF3135
S315080036C0284600F071F94B46294600222046C5E9EE
S315080036D00376C5F80080FFF735FB236E054663B110
S315080036E02046FFF783FF94F8503013B994F8583002
S315080036F01BB1236E04F150009847284602B0BDE876
S31508003700F0870135B2E76225F7E71C25F5E700BF24
S31508003710341600202DE9FF410F4690461E46054601
S3150800372098B390F8343093B3B1F5801F31D21A4C60
S31508003730022124F098FC2246394628460DF10F034B
S31508003740FEF74CFF024678B10123424600933946FC
S3150800375033462846FFF77CFF0446E86B24F06CFEE8
S31508003760204604B0BDE8F0819DF80F30012BEBD15F
S315080037702169B142E8D10093414633462846FFF70E
S31508003780F3F904460028DFD1E7E72124E8E7112406
S31508003790E6E72924E4E700BF6016002030B50C46AA
S315080037A0054685B028B390F8343023B3B1F5801FA9
S315080037B023D2022124F057FC0DF10F032146284697
S315080037C00F4AFEF70BFF034688B99DF80F20032A18
S315080037D00DD003222146009202462846FFF738FFFD
S315080037E00446E86B24F028FE204605B030BD2D249B
S315080037F0F7E72124F8E71124F6E72924F4E700BFC0
S31508003800601600202DE9F043466886B30568984699
S315080038104FF0000CA946AE4655F83C400CF1010C99
S31508003820C4F31307013401D0B94217D0B4450EF1D9
S31508003830080EF1D12F46002403E0B44207F1080729
S3150800384012D055F8343001340133F6D1C1F31301DF
S3150800385041EA0851C7E90012BDE8F08341EA085178
S31508003860CEE90012BDE8F083B8F1030F03D10123B6
S315080038700372BDE8F083002303E0B34209F10809A7
S31508003880F5D055F833400133C4F30754032CF4D16B
S31508003890C1F3130343EA0853C9E90032BDE8F083CC
S315080038A02DE9F0410646406882B0B8B10F46904609
S315080038B00024336853F8345003EBC403C5F30752A6
S315080038C0C5F31301013506D05B683046CDF8008094
S315080038D0B84718B1706801348442EAD302B0BDE82B
S315080038E0F08100BF024B1968024B1868FFF7F0BC5D
S315080038F0D4370020F437002008B536F02AF9014BF2
S31508003900186008BD8C160020014B186836F01CB9E3
S315080039108C16002073B504462248012A00EAC11114
S315080039209DF8185023F07C4007D9961E012E28D9F9
S31508003930073303F07F03194308E09DF81C300A4358
S31508003940DB0603F0C053134343F060410023C4E988
S3150800395000108DF80730B5B1202221460DF1070079
S3150800396025F065F81A220DF10700211D25F05FF8EC
S31508003970082063689DF8072043EA8263636002B003
S3150800398070BD1143E2E71B220DF10700214625F021
S315080039904EF823689DF80720042043EAC263236093
S315080039A0EDE700BF80FFFF0738B5094B0D461A68DB
S315080039B00021044634F071FC00234FF0FF322383C4
S315080039C0C4E900252361A260E382A37638BD00BF5F
S315080039D090A503080138C0B205289ABF014B185CA8
S315080039E00120704795A503082DE9F04107461546BD
S315080039F000240E46596888B0490A012922464FEA2A
S31508003A00510104F10104F8D8DC78997824031B885D
S31508003A10C90201F4006104F480540C43C3F30A0399
S31508003A205203234492B24FF000089C18274B6FEAC2
S31508003A300444039325F07843ED4302A90DF10700EA
S31508003A401B2202938DF8078024F0F1FF9DF80720CA
S31508003A50029B02A943EAC2630DF107001B2225F067
S31508003A607845049302958DF8078024F0E0FF9DF8C9
S31508003A700720029B6FEA144443EAC26305934FF09A
S31508003A80FF330794069307A9BB69012206F11000C4
S31508003A909847BB6905A90446012206F1080098471C
S31508003AA0BB69404518BF044604A90122301D984742
S31508003AB00122404518BF0446BB69304603A998470A
S31508003AC0404508BF204608B0BDE8F08101009AB21B
S31508003AD0044BD3F88420D206FBD4D3F88400C0F371
S31508003AE0811070470040005038B5174B0546D3F88B
S31508003AF028310C4603F00703013B052B20D8DFE8E5
S31508003B0003F003131B0F0B1734F064FD052305B1EF
S31508003B10286004B1236038BD34F05CFD0623F6E75F
S31508003B2034F0A2FD0723F2E734F094FD0323EEE711
S31508003B3034F090FD0423EAE734F088FD0223E6E733
S31508003B4000231846E3E700BF00800050002337B57E
S31508003B500193164B0546D3F820320C4603F00703AB
S31508003B60042B21D8DFE803F0030B11161B000123F1
S31508003B700DB1019A2A6004B1236003B030BD00215B
S31508003B8001A8FFF7B1FF1223F2E734F06DFD072312
S31508003B900190EDE735F0ECFF0A230190E8E734F0F1
S31508003BA0B7FD09230190E3E70023E1E70080005011
S31508003BB038B5104B0546D3F850320C4603F00303CC
S31508003BC0022B12D0032B08D0012B0AD0002318464B
S31508003BD005B1286004B1236038BD35F0CCFF0C234D
S31508003BE0F6E735F0C5FF0A23F2E734F091FD09231D
S31508003BF0EEE700BF0080005038B5104B0546D3F8F5
S31508003C0080300C4603F00303022B0BD0032B0DD098
S31508003C10012B0FD134F0E4FC0E2305B1286004B162
S31508003C20236038BD34F020FD0723F6E734F0D2FCD4
S31508003C300623F2E700231846EFE700BF008000508E
S31508003C4038B5104B0546D3F800310C4603F003038C
S31508003C50022B0BD0032B0DD0012B0FD134F0FAFC1D
S31508003C60032305B1286004B1236038BD34F050FD44
S31508003C700923F6E734F0F4FC0823F2E701230020D1
S31508003C80EFE700BF0080005038B5184B0546D3F85B
S31508003C9020010C4600F00700062823D8DFE800F0CC
S31508003CA0040A0E16121A1E00012305B1286004B173
S31508003CB0236038BD34F08EFC0523F6E734F0CAFCE1
S31508003CC00323F2E734F0D0FC0723EEE734F0BEFC1A
S31508003CD00223EAE734F07EFC0623E6E734F0BAFC72
S31508003CE00423E2E700231846DFE700BF0080005000
S31508003CF038B5104B0546D3F840310C4603F003039C
S31508003D00022B0BD0032B0DD0012B0FD135F030FF32
S31508003D100A2305B1286004B1236038BD34F0F8FCE5
S31508003D200923F6E735F027FF0C23F2E701230020E5
S31508003D30EFE700BF00800050002337B50193164B0C
S31508003D400546D3F860320C4603F00703013B032B04
S31508003D501FD8DFE803F0020E1914002101A8FFF7A7
S31508003D6093FF10230DB1019A2A6004B1236003B0B2
S31508003D7030BD002101A8FFF7BBFF1123F2E734F09D
S31508003D8073FC07230190EDE734F060FC02230190F1
S31508003D90E8E70023E6E700BF00800050002337B5B8
S31508003DA00193164B0546D3F894320C4603F00703E5
S31508003DB0013B032B1FD8DFE803F0020E191400217C
S31508003DC001A8FFF761FF10230DB1019A2A6004B11B
S31508003DD0236003B030BD002101A8FFF789FF112336
S31508003DE0F2E734F041FC07230190EDE734F02EFCAE
S31508003DF002230190E8E70023E6E700BF00800050B1
S31508003E0038B5104B0546D3F860310C4603F003036A
S31508003E10022B0BD0032B0DD0012B0FD135F0A8FEAA
S31508003E200A2305B1286004B1236038BD34F070FC5C
S31508003E300923F6E735F09FFE0C23F2E7012300205D
S31508003E40EFE700BF008000502E4B98424AD022D898
S31508003E502D4B984240D014D82C4B984239D00AD8CA
S31508003E602B4B984232D02B4B98422FD02A4B984254
S31508003E702CD000207047294B9842FAD1284B186F4E
S31508003E807047284B98422AD0274B9842F1D1244BA9
S31508003E90D3F880007047254B98422BD009D8244B7D
S31508003EA0984223D0234B9842E3D11D4BD3F88C007C
S31508003EB07047214B984221D003F5740303F510533C
S31508003EC09842D6D1164BD3F898007047144B986D84
S31508003ED07047134B586E7047114B586F7047104B0D
S31508003EE0986F70470E4BD3F8840070470C4BD3F885
S31508003EF0880070470A4BD3F890007047084BD3F8F0
S31508003F00940070470048E8010024F400C0CF6A0016
S31508003F1080841E0000093D0040420F00405DC60037
S31508003F200080E00FC0EA210180BA8C01007E5603AA
S31508003F3080D54302006CDC020090D00373B50D46B1
S31508003F400021114B0191D3F88041064604F0030481
S31508003F50022C13D0032C0CD0012C13D101A8FFF787
S31508003F6093FE10240EB1019B336005B12C6002B09C
S31508003F7070BD34F079FB07240190F3E734F066FB53
S31508003F800190EFE70C46EDE70080005038B5104B7E
S31508003F900546D3F840320C4603F00303022B0BD038
S31508003FA0032B0DD0012B0FD135F0E2FD0A2305B105
S31508003FB0286004B1236038BD34F0AAFB0923F6E76C
S31508003FC035F0D9FD0C23F2E701230020EFE700BF07
S31508003FD00080005038B5144B0546D3F800020C464D
S31508003FE000F0070004281BD8DFE800F003090D11CC
S31508003FF01500012305B1286004B1236038BD35F0EA
S31508004000B7FD0A23F6E734F083FB0923F2E735F018
S31508004010B2FD0C23EEE734F003FB0F23800AE9E731
S3150800402000231846E6E700BF0080005038B5144B59
S315080040300546D3F808020C4600F0070004281BD8EA
S31508004040DFE800F003090D111500012305B128600A
S3150800405004B1236038BD35F08BFD0A23F6E734F04A
S3150800406057FB0923F2E735F086FD0C23EEE734F01B
S31508004070D7FA0F23800AE9E700231846E6E700BFC8
S3150800408000800050B0F5207F1FD009D8B0F5007F1A
S3150800409015D003D868B1B0F5C07F0AD000200CE06F
S315080040A0B0F5607FFAD10B4BD3F88000C0F301104E
S315080040B003E0084B186FC0F3033001307047054B17
S315080040C0D3F89000C0F30460F7E7024B186FC0F30B
S315080040D08020F2E70080005002464FF48030104BF3
S315080040E010B598660020FFF7CDFF504341F67132B0
S315080040F00C4BDC69DA635A6804F4803422F4401203
S3150800410059B90949884294BF002001200005024395
S315080041105A600CB10022DA6310BD0449F2E700BF09
S315080041200090005000000350005A6202002D310131
S315080041304209531E022B96BF074B002303EB82034B
S3150800414000F01F0029B103F58053012282401A604E
S31508004150704703F50053F8E7608000501FB500214B
S31508004160B0F5807F0446CDE9001100F0CF803BD83A
S31508004170002800F0A480A0F12004602C44D8602C0C
S3150800418042D8DFE804F09CA49CA4B4B4B4B4B4A4A4
S31508004190BE4AD46A4AA4A4A441414141414141418D
S315080041A0A4A4A47CDEA4414141414141414141418D
S315080041B04141E3B49C9C9CD94A4A88E85FB941418D
S315080041C0414141939C41B4B4B4B4B4B9B9A441A42F
S315080041D0A44141414141414141414141414141415E
S315080041E04141414141419800B0F5E06F00F0A98096
S315080041F038D8B0F5607F75D01AD8B0F5007F61D091
S3150800420005D8B0F5C07F5AD0009804B010BDB0F5F7
S31508004210207F5CD0B0F5407FF6D134F001FA024633
S315080042204FF42070FFF72EFFB2FBF0F2520857E06A
S31508004230B0F5B06F65D00AD8B0F5806F57D0B0F535
S31508004240A06FE1D100216846FFF780FCDCE7B0F5F6
S31508004250C06F6CD0B0F5D06FD6D100216846FFF795
S31508004260B9FED1E7B0F5186F70D00DD8B0F5086F64
S315080042707FD0B0F5106F5FD0B0F5F06FC4D10021D4
S315080042806846FFF7BDFDBFE7B0F5286F63D007D8CE
S31508004290B0F5206FB8D100216846FFF74DFDB3E7AA
S315080042A0B0F5406F28D0B0F5486FADD1002168460B
S315080042B0FFF774FDA8E734F093F90090A4E734F00B
S315080042C0AFF9FAE734F08CF90246204604E034F0F8
S315080042D0A7F902464FF42070FFF7D4FEB2FBF0F2BE
S315080042E0009291E701A8FFF787FC019AEDE7002104
S315080042F06846FFF7C9FC87E700216846FFF7F4FB25
S3150800430082E700216846FFF719FE7DE74FF0E023B4
S3150800431002911B695B0705D534F082F90290029B6E
S31508004320009371E703A902A8FFF7E2FCF7E700216B
S315080043306846FFF7DDFC67E700216846FFF776FE6B
S3150800434062E700216846FFF721FE5DE7002168461F
S31508004350FFF72EFC58E70021084B0391D3F870327B
S3150800436003F00303012B02D103A8FFF7C1FC039B4B
S31508004370D6E76846FFF764FC46E700BF00800050B2
S3150800438008B58020FFF7EAFE034B98429EBF4FF41C
S315080043908032024B1A6708BD005A620200A000501C
S315080043A01FB503460020B3F5807F019000F0F48026
S315080043B000F28E80662B7DD83C2B06D8243B092B31
S315080043C05ED9019805B05DF804FB3D3B292BF8D86A
S315080043D001A252F823F000BFBB450008E9450008D2
S315080043E0C3430008C3430008C3430008C343000887
S315080043F0C3430008C3430008C3430008C343000877
S31508004400C3430008C3430008C3430008C343000866
S31508004410C3430008F34500088F450008C343000856
S31508004420C3430008C343000837450008C3430008D0
S31508004430C343000851450008FD450008F944000833
S31508004440DF450008C3430008C3430008C343000808
S31508004450C3430008C343000869450008C34300086E
S31508004460C34300088F4500088F4500088F4500089C
S315080044708F4500088F450008DF450008DF4500081E
S31508004480092B9ED801A252F823F000BF8F450008D9
S315080044908F4500088F4500088F4500088F4500089E
S315080044A0C343000885450008C343000817450008AC
S315080044B0C5450008802B84D1594B1B6F03F00703B1
S315080044C0013B032B3FF67DAFDFE803F05A535658FE
S315080044D0B3F5F06F71D023D8B3F5B06F52D010D8BA
S315080044E0B3F5607F77D0FFF46CAFB3F5806F4ED02D
S315080044F0B3F5A06F7FF465AF002001A9FFF726FB8F
S315080045005FE7B3F5D06F5DD0B3F5E06F6CD0B3F568
S31508004510C06F7FF456AF002001A9FFF7E9FB50E70B
S31508004520B3F5186F65D00BD8B3F5086F4FD0B3F550
S31508004530106F7FF446AF002001A9FFF777FD40E72B
S31508004540B3F5286F5AD008D8B3F5206F7FF439AF82
S31508004550002001A9FFF7F0FB33E7B3F5406F3ED023
S31508004560B3F5486F7FF42DAF002001A9FFF716FCBD
S3150800457027E70523019324E70323FBE70823F9E745
S315080045800223F7E7002001A9FFF7D8FC19E7002066
S3150800459001A9FFF779FB14E74FF0E02302901B69A6
S315080045A05B0705D534F03CF80D230393039BE1E73D
S315080045B003A902A8FFF79CFBF8E7002001A9FFF76B
S315080045C01FFCFEE6002001A9FFF704FDF9E601A994
S315080045D0FFF736FBF5E601A9FFF70EFBF1E600202B
S315080045E001A9FFF781FAECE6002001A9FFF7CEFC46
S315080045F0E7E6002001A9FFF7DBFAE2E6084BD3F865
S31508004600703203F00303012B04D0022B0CBF1523D1
S315080046100023AFE7002103A8FFF76AFB1123A9E7E8
S31508004620008000504FF48032074B0849586E03F556
S3150800463080535A664B6A23F001034B62C3035CBF7F
S31508004640034B5A66704700BF0080005000000850B0
S3150800465000A0005008B5FFF7A3FE092811D00A38B4
S31508004660012802D94FF6FF7008BD4FF48002064BA9
S315080046705A6603F5D8335B6ADB07F3D54FF4FA704D
S31508004680F2E7024B1888EFE700900050EA3900205D
S3150800469008B5FFF785FE03280ABF024B4FF6FF70E1
S315080046A0188808BDE839002038B504468020FFF789
S315080046B077FE032800F08A804FF48012544B4FF09F
S315080046C0A0615A6645F60E03524AC2F88030524B2C
S315080046D099624FF4803103F580539962936DD9033B
S315080046E0FCD4916D11F08041FBD1D4E900031B0580
S315080046F043EA0063E07B0343207B43EA0043607B95
S3150800470043EA0033A07B43EA801313619069D4E936
S3150800471004531B0643EA856300F000400343A07E6A
S31508004720E57E0343207E43EA0043607E43EA002396
S315080047309361136AE06923F00F03002843EA000334
S3150800474043EA850314BF0125002543EAC50313621E
S31508004750324D3CD194F82430916A94F82000DB005D
S31508004760294043EA40130B4394F8211043EA011306
S3150800477043F4803393622A49264A936D31EA030348
S31508004780FBD14FF08071244881621369A56823F430
S31508004790700343EA055313614FF00043836194F8AD
S315080047A022300BB91F4B996294F823303BB94FF46A
S315080047B080321C4B9A62174A936D5B00FCD494F8BE
S315080047C025301BB1134B184AC3F8802038BD022880
S315080047D008D11161154891614FF408524FF47F4191
S315080047E024F043F90B4994F822308A6A94F8200099
S315080047F01B062A4043EA4013134394F8242043EA4D
S31508004800C20394F8232043EA02438B62D7E700BF2A
S31508004810009000500040005A0050005AC7FFFEFEA4
S31508004820030001000060005AF1A7FFFF3440005A58
S31508004830014B93F900007047973A00204FF40001A6
S315080048401B4A437810B551664FF4D151022402F53C
S31508004850B832516217494F2B4C604FF0010428BFFC
S315080048604F2301F580514C601169C903FCD40178C6
S3150800487043EA01235361D0E901131B0143EA0123EB
S31508004880417B0B43017B43EA41039360C37B817BF6
S315080048901B0143EA4113417C0B43017C43EA410374
S315080048A05360837C13B16FF4D153536210BD00BFBC
S315080048B00090005000100250014B1880704700BF4E
S315080048C0EA390020014B1880704700BFE8390020FC
S315080048D04FF4800208B5184B5A660223174A5360EC
S315080048E0936813F48033FBD1012822D133F0B2FE4A
S315080048F0134B984215D003F5122303F5F863984233
S3150800490013D0104B00EB8002400AB3FBF0F3520AB7
S315080049100A49CA620B6301234B620022074B5A609D
S3150800492008BD45F67A13084AF2E745F61A03074A18
S31508004930EEE75362F1E700BF0090005000400250D6
S3150800494000F0490264666666D8B80500BBCF050064
S31508004950B0F5207F10B50C4657D008D8B0F5007FC3
S3150800496048D003D830B3B0F5C07F23D010BDB0F51A
S31508004970607FFBD12949013CD1F8FC2012F08072F6
S315080049801EBFD1F8FC3023F08073C1F8FC302449EF
S31508004990D1F8803023F0300343EA0414C1F880408C
S315080049A0002AE3D01D4AD2F8FC3043F08073C2F8DF
S315080049B0FC30DBE724F068F824F074F84FF4803113
S315080049C0184B174A1967136F013C23F4704343EADF
S315080049D00434146733F024FE0446FFF779F8C0F16F
S315080049E00201204624F058F800F036F8BDE81040D9
S315080049F0FFF7C6BC0A4A4C1ED2F8903023F0F8538B
S31508004A0043EA0464C2F89040B0E7054A4C1E136FA7
S31508004A1023F4806343EA84231367A7E700ED00E0E5
S31508004A20008000500090005008B50121022000F0D7
S31508004A3083F94FF42070FFF725FB054B187024F017
S31508004A4023F824F02FF84FF48032024B1A6708BD7A
S31508004A50713200200090005008B54FF4C070FFF77F
S31508004A607DFBBDE808400449884294BF0121022124
S31508004A704FF42070FFF76CBF80F0FA0238B5044691
S31508004A8033F0CEFD0546FFF723F8C0F102012846AC
S31508004A9024F002F80121002000F08EF92CB1FFF76E
S31508004AA0DBFFBDE83840FFF76BBC034B4FF42070C3
S31508004AB01978FFF74DFFF4E7713200204FF4C02252
S31508004AC070B50546FFF7C0F92F4B04465A6603F53D
S31508004AD098335A68012A04D12C494A605A689207C1
S31508004AE0FCD48020FFF75CFC052807D123F0CCFF17
S31508004AF023F0D8FF4FF48032234B1A67244B24F057
S31508004B0040749D4235D0234B9D4235D033F062FD2B
S31508004B108542064603D90121284600F04DF91E4B69
S31508004B20DA6812F0060FFBD199689C609A686240B1
S31508004B3012F4F81F23D12846FDF71AF88020FFF74C
S31508004B402FFC05280DD133F06BFD0446FEF7C0FF98
S31508004B50C0F10201204623F09FFFFFF77DFFFFF714
S31508004B600FFCB5420ED8BDE870400121002000F0C8
S31508004B7023B944F00074C9E744F08074C6E73546A3
S31508004B809960DBE770BD00BF0090005000E001505F
S31508004B9040420F0080841E0000000150364B9842A8
S31508004BA04FD01CD8354B984257D00ED8344B984224
S31508004BB04FD008D8334B98422CD0334B984229D043
S31508004BC0324B984226D0002327E0314B984234D006
S31508004BD0304B9842F7D1304BD3F8BC301DE02F4B01
S31508004BE0984232D00FD8A3F53703A3F5D853984285
S31508004BF037D003F5B70303F558639842E3D1264B3C
S31508004C00D3F8C83009E0264B9842DCD1224BD3F8BA
S31508004C10D03002E0204BD3F8A0304FF40021214ACF
S31508004C2023F040735166194A90421ED0154A9042A5
S31508004C301ED04FF0B44293607047174BD3F8B83084
S31508004C40EBE7154BD3F8C030E7E7134BD3F8CC3076
S31508004C50E3E7114BD3F8A430DFE70F4BD3F8B030B6
S31508004C60DBE70D4BD3F8C430D7E743F00073E0E732
S31508004C7043F08073DDE700BFC0EA21018096980003
S31508004C80404B4C0080841E0000093D0040420F0046
S31508004C90405DC6000024F4000080E00F0048E801EB
S31508004CA0005A620200900050024A536B0342FCD13C
S31508004CB0704700BF00800950044A4178536F23F4B7
S31508004CC0407343EA01235367704700BF0040005012
S31508004CD0104A10B51369044643F00403136134F00F
S31508004CE0A1FB23F0E4FE0C4B5B6E5B0142BF0B4B52
S31508004CF00B4AC3F82024BFF34F8FBFF36F8F30BF23
S31508004D0023F0D6FE03F0D0FF1CB9BDE8104033F0FF
S31508004D1087BC10BD00ED00E00080005000E00350A5
S31508004D200000FF0F034A0179D36E23F030030B43CB
S31508004D30D366704700400050F8B504461C4BD3F8BC
S31508004D408420D106FBD4D3F88430C3F381139C4264
S31508004D502CD033F045FC012C064602D1214623F01F
S31508004D609BFE34F0F6FE4FF00072124B07465A6669
S31508004D70204623F0A0FE4FF480630D4D621E93403B
S31508004D802B676B6E9A0103D4D5F884309B060AD537
S31508004D90384634F0D9FE022C08D13046BDE8F84032
S31508004DA0002123F079BED5F88430EAE7F8BD00BFC4
S31508004DB0004000500060005010B50C4608B933F0AA
S31508004DC00FFC074B21461B783BB1064B984204D88B
S31508004DD00120BDE81040FFF7AFBF0220F9E700BF8A
S31508004DE072320020005A62020278034B0121002029
S31508004DF01A70FFF7E1BF00BF723200204FF0004281
S31508004E0038B5244B244C5A664AF6CD33656C0146B0
S31508004E1005F00105236430BB0120FFF745FF6368F1
S31508004E20DB0708D4002415B11B4B1C4A1A6432F060
S31508004E309DF9204638BD1A4B58600846194B226B17
S31508004E40D20705D4984201D10724ECE70130F6E7EA
S31508004E509842E7D1F8E70132236B13F0080305D02F
S31508004E608A42F8D1F0E700220E49F5E78A42EBD0EC
S31508004E7020210B4A91620121A2F580525160064910
S31508004E80084A886A800603D49342DDD00133F8E7DE
S31508004E909342DEE700900050008009503254FFFF2D
S31508004EA000A0095040420F004FF0004238B5164B9B
S31508004EB001465A664AF6CD33144C154A656C236486
S31508004EC043780B205B0043F00103D363FFF7ECFE46
S31508004ED063688A7823F4F87343EA02136360CA782E
S31508004EE04B7943EA0223A3600A798B7943EA0223C2
S31508004EF023610878FFF782FFEB0744BF054B23645D
S31508004F0032F034F9012038BD009000500080095075
S31508004F10004000503254FFFF4FF00042124B70B56C
S31508004F205D6E03F580535A664AF6CD3304460F493B
S31508004F3080204E6C0B64FFF7B7FE0B6A23F00F0355
S31508004F400F2C94BF234343F00F030B62F30744BFB0
S31508004F50074B0B64002DA2BF4FF00042054B5A6663
S31508004F6032F004F970BD00BF00800050008009507F
S31508004F703254FFFF00A000504FF00042104B70B5AE
S31508004F805D6E03F580535A664AF6CD3304460D49DD
S31508004F9080204E6C0B64FFF787FE0B6A23F4F853E8
S31508004FA043EA04230B62F30744BF074B0B64002D47
S31508004FB0A2BF4FF00042054B5A6632F0D7F870BDD3
S31508004FC000800050008009503254FFFF00A00050B6
S31508004FD010B523F075FD042300F5805100F5005245
S31508004FE00B6113610B6113610B6113610B61136133
S31508004FF0202341F2020103610023C36083604161FB
S315080050004FF4A0218361836541620549C361036248
S315080050108362C36243630365D164036310BD00BF43
S31508005020FF3F0D03F8B505461446084681B9394BC6
S315080050309D4238D0384B9D4237D003F580439D4278
S3150800504035D003F580439D4208BF6620FFF786F8F2
S31508005050AB68DE0733D5B0FBF4F46E68013C16F096
S3150800506001062AD02821284623F026FDAB6C99078D
S315080050701FD1AB6CDA071ED4AB6C13F0020F14BF4A
S3150800508006270027284623F01BFD2B6923F07F43BC
S3150800509043EA04632B61002E3BD039462846BDE817
S315080050A0F84023F027BD5620D0E75720CEE76520E5
S315080050B0CCE70527E6E70927E4E73746E5E76B681F
S315080050C0AB6DDB07AB6848BF640003F0E003402B19
S315080050D01BD014D8002B0CBF1023082363434101AF
S315080050E0B1FBF3F20D4B203A03EAC202284601212E
S315080050F023F0E2FC2A63BDE8F84023F0DDBC602B10
S3150800510005D0802B05D10123E8E70623E6E704232B
S31508005110E4E7F8BD0000015B00C00850F8FF7F0017
S31508005120436870B504460E460D691BB140F6FF711B
S3150800513023F0C2FC2046FFF74BFF2269737BB17B45
S3150800514022F087020B43134343F0800323610DB318
S3150800515023692A7F23F0F80343EAC2132A78134304
S315080051602A7943EA42136A7A43EA0213EA7B43EA54
S3150800517082132361E268D5E9053122F0F04222F470
S3150800518070220B4313432A7B43EA82236A7B43EA52
S31508005190C233E360A368F27B23F00303134343F0AF
S315080051A00103A36025B36B88A26803F4C0431343C5
S315080051B0A360A3686A7943EA8223A360AB79E97995
S315080051C0626A1B01090203F0700301F4E06122F42C
S315080051D0772222F4EE620B4313432A7A120302F46F
S315080051E0E04213436A7F120402F470221343636297
S315080051F06369327B23F00F0313436361ADB16B8997
S31508005200A3616B7B3BB12E4B9C421DD1AB7B2D4AD8
S3150800521003F00F035367EB7B3BB1294B9C4231D11B
S315080052202B7C284A03F00F0313672046D6E90112A0
S31508005230FFF7F8FE2046317823F05CFCA36CDB43CD
S3150800524013F4405FFAD170BD1F4B9C4206D1AB7B6D
S315080052501C4A03F00F03C2F88030DCE71B4B9C4264
S3150800526006D1AB7B174A03F00F03C2F88C30D2E79E
S31508005270174B9C4201BFAB7B124A03F00F03C2F8DF
S315080052809830C8E7104B9C4205D12B7C0D4A03F099
S315080052900F03D367C9E70D4B9C4206D12B7C094AFD
S315080052A003F00F03C2F88830BFE7094B9C4201BFE1
S315080052B02B7C044A03F00F03C2F89430B5E700BF0D
S315080052C00000015B0090035000C008500000095020
S315080052D0004009502DE9F04105460F461E46904606
S315080052E04AB1012330221C4C8B4002FB004416B302
S315080052F004F5825423603023072F4FF00F0105FB76
S3150800530003F3164C1AD8BA00181D134608FA02F207
S315080053109940204423F01AFCB8F1000F09D1012363
S3150800532030210D4ABB4001FB052296B102F5825297
S315080053301360BDE8F08104F50154DBE7A7F1080C1A
S315080053404FEA8C0C03F10C0008FA0CF201FA0CF186
S31508005350DFE702F50152EBE700C0035030C0035007
S315080053604FF48032054B9A6641F6713203F51C33C9
S31508005370DA63012203F50053DA60704700900050A3
S315080053800B4B01219B6EDB035EBF4FF48032094B4A
S315080053909A6641F67132084BDA63084AD1600022F0
S315080053A0DA634FF48032A3F518339A66704700BF64
S315080053B00080005000900050000003500020035069
S315080053C0013836289ABF024B185C0020704700BF88
S315080053D09BA503080346142B08461CD00AD8012BA4
S315080053E01ED0122B11D070470E4A22FA03F3DB07A0
S315080053F004D47047213B162BF6D9704701280FD8DD
S31508005400DFE800F00D0101207047012907D00429C3
S3150800541008BF01207047022901D00529F8E70020B6
S31508005420704700BF0F00720038B5C2F30625044660
S3150800543002F0070241B942EA052242F44022063444
S31508005440074B43F8242038BD11462846FFF7C2FF0C
S3150800545002462846FFF7B4FF163442EA0022EFE771
S31508005460008003504FF48032084B5A6603F5EE234A
S315080054709B69C3F3461203F00F010A434280C3F344
S315080054800342C3F303334270037070470090005021
S31508005490014B986CD96C70470080E00F0120034BD4
S315080054A09B680A3303F01F03984070470080E00F9B
S315080054B030B5244CA0422DD004F58044A0422BD010
S315080054C004F58044A04229D004F58044A04227D0A0
S315080054D004F58044A04225D004F58044A04223D098
S315080054E004F58044A04221D004F58044A0421FD090
S315080054F004F58044A0421DD004F58044A04208D19A
